{
  "contractName": "DyCrowd",
  "abi": [
    {
      "inputs": [
        {
          "internalType": "address",
          "name": "DyDAItokenAddr",
          "type": "address"
        },
        {
          "internalType": "address",
          "name": "DAITokenAddr",
          "type": "address"
        },
        {
          "internalType": "address",
          "name": "soloMargin",
          "type": "address"
        }
      ],
      "payable": false,
      "stateMutability": "nonpayable",
      "type": "constructor"
    },
    {
      "anonymous": false,
      "inputs": [
        {
          "indexed": false,
          "internalType": "address",
          "name": "purchaser",
          "type": "address"
        },
        {
          "indexed": false,
          "internalType": "uint256",
          "name": "DAIAmount",
          "type": "uint256"
        },
        {
          "indexed": false,
          "internalType": "uint256",
          "name": "DyDAItokenamount",
          "type": "uint256"
        }
      ],
      "name": "TokensPurchased",
      "type": "event"
    },
    {
      "anonymous": false,
      "inputs": [
        {
          "indexed": false,
          "internalType": "address",
          "name": "Withdrawee",
          "type": "address"
        },
        {
          "indexed": false,
          "internalType": "uint256",
          "name": "DyDAItokenamount",
          "type": "uint256"
        },
        {
          "indexed": false,
          "internalType": "uint256",
          "name": "DAIAmount",
          "type": "uint256"
        }
      ],
      "name": "TokensSold",
      "type": "event"
    },
    {
      "constant": true,
      "inputs": [],
      "name": "owner",
      "outputs": [
        {
          "internalType": "address",
          "name": "",
          "type": "address"
        }
      ],
      "payable": false,
      "stateMutability": "view",
      "type": "function"
    },
    {
      "constant": true,
      "inputs": [],
      "name": "token",
      "outputs": [
        {
          "internalType": "address",
          "name": "",
          "type": "address"
        }
      ],
      "payable": false,
      "stateMutability": "view",
      "type": "function"
    },
    {
      "constant": true,
      "inputs": [],
      "name": "rate",
      "outputs": [
        {
          "internalType": "uint256",
          "name": "",
          "type": "uint256"
        }
      ],
      "payable": false,
      "stateMutability": "view",
      "type": "function"
    },
    {
      "constant": false,
      "inputs": [],
      "name": "updateRate",
      "outputs": [],
      "payable": false,
      "stateMutability": "nonpayable",
      "type": "function"
    },
    {
      "constant": true,
      "inputs": [],
      "name": "totalDyDAIMinted",
      "outputs": [
        {
          "internalType": "uint256",
          "name": "",
          "type": "uint256"
        }
      ],
      "payable": false,
      "stateMutability": "view",
      "type": "function"
    },
    {
      "constant": true,
      "inputs": [],
      "name": "contractDAIBalance",
      "outputs": [
        {
          "internalType": "uint256",
          "name": "",
          "type": "uint256"
        }
      ],
      "payable": false,
      "stateMutability": "view",
      "type": "function"
    },
    {
      "constant": false,
      "inputs": [
        {
          "internalType": "uint256",
          "name": "DAIAmount",
          "type": "uint256"
        }
      ],
      "name": "buyTokens",
      "outputs": [],
      "payable": false,
      "stateMutability": "nonpayable",
      "type": "function"
    },
    {
      "constant": false,
      "inputs": [
        {
          "internalType": "uint256",
          "name": "tokenAmount",
          "type": "uint256"
        }
      ],
      "name": "sellTokens",
      "outputs": [],
      "payable": false,
      "stateMutability": "nonpayable",
      "type": "function"
    },
    {
      "constant": false,
      "inputs": [],
      "name": "withdrawDAI",
      "outputs": [
        {
          "internalType": "bool",
          "name": "",
          "type": "bool"
        }
      ],
      "payable": false,
      "stateMutability": "nonpayable",
      "type": "function"
    }
  ],
  "bytecode": "0x6080604052670de0b6b3a76400006005553480156200001d57600080fd5b506040516200299f3803806200299f8339818101604052620000439190810190620002bf565b33600660006101000a81548173ffffffffffffffffffffffffffffffffffffffff021916908373ffffffffffffffffffffffffffffffffffffffff160217905550600073ffffffffffffffffffffffffffffffffffffffff168173ffffffffffffffffffffffffffffffffffffffff161415620000f7576040517f08c379a0000000000000000000000000000000000000000000000000000000008152600401620000ee90620003db565b60405180910390fd5b600073ffffffffffffffffffffffffffffffffffffffff168373ffffffffffffffffffffffffffffffffffffffff1614156200016a576040517f08c379a000000000000000000000000000000000000000000000000000000000815260040162000161906200041f565b60405180910390fd5b600073ffffffffffffffffffffffffffffffffffffffff168273ffffffffffffffffffffffffffffffffffffffff161415620001dd576040517f08c379a0000000000000000000000000000000000000000000000000000000008152600401620001d490620003fd565b60405180910390fd5b80600160006101000a81548173ffffffffffffffffffffffffffffffffffffffff021916908373ffffffffffffffffffffffffffffffffffffffff160217905550826000806101000a81548173ffffffffffffffffffffffffffffffffffffffff021916908373ffffffffffffffffffffffffffffffffffffffff16021790555081600260006101000a81548173ffffffffffffffffffffffffffffffffffffffff021916908373ffffffffffffffffffffffffffffffffffffffff160217905550505050620004a0565b600081519050620002b98162000486565b92915050565b600080600060608486031215620002d557600080fd5b6000620002e586828701620002a8565b9350506020620002f886828701620002a8565b92505060406200030b86828701620002a8565b9150509250925092565b600062000324601e8362000441565b91507f736f6c6f4d617267696e20697320746865207a65726f206164647265737300006000830152602082019050919050565b600062000366601c8362000441565b91507f444149546f6b656e20697320746865207a65726f2061646472657373000000006000830152602082019050919050565b6000620003a8601e8362000441565b91507f4479444149746f6b656e20697320746865207a65726f206164647265737300006000830152602082019050919050565b60006020820190508181036000830152620003f68162000315565b9050919050565b60006020820190508181036000830152620004188162000357565b9050919050565b600060208201905081810360008301526200043a8162000399565b9050919050565b600082825260208201905092915050565b60006200045f8262000466565b9050919050565b600073ffffffffffffffffffffffffffffffffffffffff82169050919050565b620004918162000452565b81146200049d57600080fd5b50565b6124ef80620004b06000396000f3fe608060405234801561001057600080fd5b50600436106100935760003560e01c8063763d813911610066578063763d81391461010c5780637e6fbd781461012a5780638da5cb5b14610148578063c7fee63e14610166578063fc0c546a1461017057610093565b8063020bcc9e146100985780632c4e722e146100b65780633610724e146100d45780636c11bcd3146100f0575b600080fd5b6100a061018e565b6040516100ad9190611fdd565b60405180910390f35b6100be610380565b6040516100cb9190612123565b60405180910390f35b6100ee60048036036100e99190810190611832565b61038a565b005b61010a60048036036101059190810190611832565b61087b565b005b610114610c5d565b6040516101219190612123565b60405180910390f35b610132610d03565b60405161013f9190612123565b60405180910390f35b610150610df2565b60405161015d9190611ecb565b60405180910390f35b61016e610e18565b005b610178610e86565b6040516101859190611ecb565b60405180910390f35b6000600660009054906101000a900473ffffffffffffffffffffffffffffffffffffffff1673ffffffffffffffffffffffffffffffffffffffff163373ffffffffffffffffffffffffffffffffffffffff16146101ea57600080fd5b6000600260009054906101000a900473ffffffffffffffffffffffffffffffffffffffff1673ffffffffffffffffffffffffffffffffffffffff166370a08231306040518263ffffffff1660e01b81526004016102479190611ecb565b60206040518083038186803b15801561025f57600080fd5b505afa158015610273573d6000803e3d6000fd5b505050506040513d601f19601f82011682018060405250610297919081019061185b565b9050600081116102a657600080fd5b600260009054906101000a900473ffffffffffffffffffffffffffffffffffffffff1673ffffffffffffffffffffffffffffffffffffffff1663a9059cbb600660009054906101000a900473ffffffffffffffffffffffffffffffffffffffff16836040518363ffffffff1660e01b8152600401610325929190611f46565b602060405180830381600087803b15801561033f57600080fd5b505af1158015610353573d6000803e3d6000fd5b505050506040513d601f19601f8201168201806040525061037791908101906117e0565b50600191505090565b6000600554905090565b60003390506103998183610eaf565b81600260009054906101000a900473ffffffffffffffffffffffffffffffffffffffff1673ffffffffffffffffffffffffffffffffffffffff166370a08231836040518263ffffffff1660e01b81526004016103f59190611ecb565b60206040518083038186803b15801561040d57600080fd5b505afa158015610421573d6000803e3d6000fd5b505050506040513d601f19601f82011682018060405250610445919081019061185b565b1015610486576040517f08c379a000000000000000000000000000000000000000000000000000000000815260040161047d9061207a565b60405180910390fd5b600260009054906101000a900473ffffffffffffffffffffffffffffffffffffffff1673ffffffffffffffffffffffffffffffffffffffff166323b872dd8230856040518463ffffffff1660e01b81526004016104e593929190611f0f565b602060405180830381600087803b1580156104ff57600080fd5b505af1158015610513573d6000803e3d6000fd5b505050506040513d601f19601f8201168201806040525061053791908101906117e0565b50600260009054906101000a900473ffffffffffffffffffffffffffffffffffffffff1673ffffffffffffffffffffffffffffffffffffffff1663095ea7b3600160009054906101000a900473ffffffffffffffffffffffffffffffffffffffff16846040518363ffffffff1660e01b81526004016105b7929190611f46565b602060405180830381600087803b1580156105d157600080fd5b505af11580156105e5573d6000803e3d6000fd5b505050506040513d601f19601f8201168201806040525061060991908101906117e0565b506000600260009054906101000a900473ffffffffffffffffffffffffffffffffffffffff1673ffffffffffffffffffffffffffffffffffffffff1663dd62ed3e30600160009054906101000a900473ffffffffffffffffffffffffffffffffffffffff166040518363ffffffff1660e01b815260040161068b929190611ee6565b60206040518083038186803b1580156106a357600080fd5b505afa1580156106b7573d6000803e3d6000fd5b505050506040513d601f19601f820116820180604052506106db919081019061185b565b905082811015610720576040517f08c379a00000000000000000000000000000000000000000000000000000000081526004016107179061205a565b60405180910390fd5b610728610e18565b600061075960055461074b670de0b6b3a764000087610f6790919063ffffffff16565b610fd790919063ffffffff16565b905061076730856001611021565b61076f610e86565b73ffffffffffffffffffffffffffffffffffffffff166340c10f1984836040518363ffffffff1660e01b81526004016107a9929190611f46565b602060405180830381600087803b1580156107c357600080fd5b505af11580156107d7573d6000803e3d6000fd5b505050506040513d601f19601f820116820180604052506107fb91908101906117e0565b61083a576040517f08c379a00000000000000000000000000000000000000000000000000000000081526004016108319061201a565b60405180910390fd5b7f8fafebcaf9d154343dad25669bfa277f4fbacd7ac6b0c4fed522580e040a0f3383858360405161086d93929190611f6f565b60405180910390a150505050565b600033905061088a8183610eaf565b816000809054906101000a900473ffffffffffffffffffffffffffffffffffffffff1673ffffffffffffffffffffffffffffffffffffffff166370a08231836040518263ffffffff1660e01b81526004016108e59190611ecb565b60206040518083038186803b1580156108fd57600080fd5b505afa158015610911573d6000803e3d6000fd5b505050506040513d601f19601f82011682018060405250610935919081019061185b565b1015610976576040517f08c379a000000000000000000000000000000000000000000000000000000000815260040161096d9061207a565b60405180910390fd5b60008060009054906101000a900473ffffffffffffffffffffffffffffffffffffffff1673ffffffffffffffffffffffffffffffffffffffff1663dd62ed3e83306040518363ffffffff1660e01b81526004016109d4929190611ee6565b60206040518083038186803b1580156109ec57600080fd5b505afa158015610a00573d6000803e3d6000fd5b505050506040513d601f19601f82011682018060405250610a24919081019061185b565b905082811015610a69576040517f08c379a0000000000000000000000000000000000000000000000000000000008152600401610a60906120da565b60405180910390fd5b610a71610e18565b6000809054906101000a900473ffffffffffffffffffffffffffffffffffffffff1673ffffffffffffffffffffffffffffffffffffffff166379cc679083856040518363ffffffff1660e01b8152600401610acd929190611f46565b600060405180830381600087803b158015610ae757600080fd5b505af1158015610afb573d6000803e3d6000fd5b505050506000610b30670de0b6b3a7640000610b2260055487610f6790919063ffffffff16565b610fd790919063ffffffff16565b9050610b3e30826000611021565b6000610b696103e3610b5b6103e885610fd790919063ffffffff16565b610f6790919063ffffffff16565b9050600260009054906101000a900473ffffffffffffffffffffffffffffffffffffffff1673ffffffffffffffffffffffffffffffffffffffff1663a9059cbb85836040518363ffffffff1660e01b8152600401610bc8929190611f46565b602060405180830381600087803b158015610be257600080fd5b505af1158015610bf6573d6000803e3d6000fd5b505050506040513d601f19601f82011682018060405250610c1a91908101906117e0565b507f2dcf9433d75db0d8b1c172641f85e319ffe4ad22e108a95d1847ceb906e5195d848684604051610c4e93929190611f6f565b60405180910390a15050505050565b60008060009054906101000a900473ffffffffffffffffffffffffffffffffffffffff1673ffffffffffffffffffffffffffffffffffffffff166318160ddd6040518163ffffffff1660e01b815260040160206040518083038186803b158015610cc657600080fd5b505afa158015610cda573d6000803e3d6000fd5b505050506040513d601f19601f82011682018060405250610cfe919081019061185b565b905090565b6000610d0d6115d4565b60405180604001604052803073ffffffffffffffffffffffffffffffffffffffff16815260200160008152509050600160009054906101000a900473ffffffffffffffffffffffffffffffffffffffff1673ffffffffffffffffffffffffffffffffffffffff1663c190c2ec8260016040518363ffffffff1660e01b8152600401610d999291906120fa565b604080518083038186803b158015610db057600080fd5b505afa158015610dc4573d6000803e3d6000fd5b505050506040513d601f19601f82011682018060405250610de89190810190611809565b6020015191505090565b600660009054906101000a900473ffffffffffffffffffffffffffffffffffffffff1681565b6000610e22610c5d565b90506000610e2e610d03565b9050600082118015610e405750600081115b15610e7957610e7282610e64670de0b6b3a764000084610f6790919063ffffffff16565b610fd790919063ffffffff16565b6005819055505b610e81610380565b505050565b60008060009054906101000a900473ffffffffffffffffffffffffffffffffffffffff16905090565b600073ffffffffffffffffffffffffffffffffffffffff168273ffffffffffffffffffffffffffffffffffffffff161415610f1f576040517f08c379a0000000000000000000000000000000000000000000000000000000008152600401610f16906120ba565b60405180910390fd5b6000811415610f63576040517f08c379a0000000000000000000000000000000000000000000000000000000008152600401610f5a9061209a565b60405180910390fd5b5050565b600080831415610f7a5760009050610fd1565b6000828402905082848281610f8b57fe5b0414610fcc576040517f08c379a0000000000000000000000000000000000000000000000000000000008152600401610fc39061203a565b60405180910390fd5b809150505b92915050565b600061101983836040518060400160405280601a81526020017f536166654d6174683a206469766973696f6e206279207a65726f000000000000815250611573565b905092915050565b606061102b6115d4565b60405180604001604052808673ffffffffffffffffffffffffffffffffffffffff16815260200160008152509050611061611604565b6040518061010001604052808561107957600161107c565b60005b600181111561108757fe5b81526020016000815260200160405180608001604052808715158152602001600060018111156110b357fe5b8152602001600060018111156110c557fe5b815260200188815250815260200160018152602001600081526020018773ffffffffffffffffffffffffffffffffffffffff16815260200160008152602001848152509050600060038054905011156112ea5781600360008154811061112757fe5b906000526020600020906002020160008201518160000160006101000a81548173ffffffffffffffffffffffffffffffffffffffff021916908373ffffffffffffffffffffffffffffffffffffffff1602179055506020820151816001015590505080600460008154811061119857fe5b906000526020600020906009020160008201518160000160006101000a81548160ff021916908360018111156111ca57fe5b02179055506020820151816001015560408201518160020160008201518160000160006101000a81548160ff02191690831515021790555060208201518160000160016101000a81548160ff0219169083600181111561122657fe5b021790555060408201518160000160026101000a81548160ff0219169083600181111561124f57fe5b0217905550606082015181600101555050606082015181600401556080820151816005015560a08201518160060160006101000a81548173ffffffffffffffffffffffffffffffffffffffff021916908373ffffffffffffffffffffffffffffffffffffffff16021790555060c0820151816007015560e08201518160080190805190602001906112e1929190611670565b509050506114da565b6003829080600181540180825580915050906001820390600052602060002090600202016000909192909190915060008201518160000160006101000a81548173ffffffffffffffffffffffffffffffffffffffff021916908373ffffffffffffffffffffffffffffffffffffffff160217905550602082015181600101555050506004819080600181540180825580915050906001820390600052602060002090600902016000909192909190915060008201518160000160006101000a81548160ff021916908360018111156113be57fe5b02179055506020820151816001015560408201518160020160008201518160000160006101000a81548160ff02191690831515021790555060208201518160000160016101000a81548160ff0219169083600181111561141a57fe5b021790555060408201518160000160026101000a81548160ff0219169083600181111561144357fe5b0217905550606082015181600101555050606082015181600401556080820151816005015560a08201518160060160006101000a81548173ffffffffffffffffffffffffffffffffffffffff021916908373ffffffffffffffffffffffffffffffffffffffff16021790555060c0820151816007015560e08201518160080190805190602001906114d5929190611670565b505050505b600160009054906101000a900473ffffffffffffffffffffffffffffffffffffffff1673ffffffffffffffffffffffffffffffffffffffff1663a67a6a45600360046040518363ffffffff1660e01b8152600401611539929190611fa6565b600060405180830381600087803b15801561155357600080fd5b505af1158015611567573d6000803e3d6000fd5b50505050505050505050565b600080831182906115ba576040517f08c379a00000000000000000000000000000000000000000000000000000000081526004016115b19190611ff8565b60405180910390fd5b5060008385816115c657fe5b049050809150509392505050565b6040518060400160405280600073ffffffffffffffffffffffffffffffffffffffff168152602001600081525090565b6040518061010001604052806000600181111561161d57fe5b8152602001600081526020016116316116f0565b81526020016000815260200160008152602001600073ffffffffffffffffffffffffffffffffffffffff16815260200160008152602001606081525090565b828054600181600116156101000203166002900490600052602060002090601f016020900481019282601f106116b157805160ff19168380011785556116df565b828001600101855582156116df579182015b828111156116de5782518255916020019190600101906116c3565b5b5090506116ec9190611730565b5090565b60405180608001604052806000151581526020016000600181111561171157fe5b81526020016000600181111561172357fe5b8152602001600081525090565b61175291905b8082111561174e576000816000905550600101611736565b5090565b90565b6000815190506117648161247e565b92915050565b60006040828403121561177c57600080fd5b611786604061213e565b9050600061179684828501611755565b60008301525060206117aa848285016117cb565b60208301525092915050565b6000813590506117c581612495565b92915050565b6000815190506117da81612495565b92915050565b6000602082840312156117f257600080fd5b600061180084828501611755565b91505092915050565b60006040828403121561181b57600080fd5b60006118298482850161176a565b91505092915050565b60006020828403121561184457600080fd5b6000611852848285016117b6565b91505092915050565b60006020828403121561186d57600080fd5b600061187b848285016117cb565b91505092915050565b60006118908383611ccd565b905092915050565b60006118a48383611e66565b60408301905092915050565b6118b981612287565b82525050565b6118c881612287565b82525050565b60006118d9826121aa565b6118e381856121e5565b9350836020820285016118f58561216b565b8060005b85811015611930578484038952816119118582611884565b945061191c836121cb565b925060208a019950506001810190506118f9565b50829750879550505050505092915050565b600061194d826121b5565b61195781856121f6565b935061196283612180565b8060005b8381101561199257816119798882611898565b9750611984836121d8565b925050600181019050611966565b5085935050505092915050565b6119a881612299565b82525050565b6119b781612299565b82525050565b6000815460018116600081146119da5760018114611a0057611a44565b607f60028304166119eb8187612207565b955060ff198316865260208601935050611a44565b60028204611a0e8187612207565b9550611a1985612195565b60005b82811015611a3b57815481890152600182019150602081019050611a1c565b80880195505050505b505092915050565b611a5581612308565b82525050565b611a648161231a565b82525050565b611a738161232c565b82525050565b611a828161233e565b82525050565b6000611a93826121c0565b611a9d8185612218565b9350611aad818560208601612350565b611ab68161241f565b840191505092915050565b6000611ace600e83612218565b91507f4d696e74696e67206661696c65640000000000000000000000000000000000006000830152602082019050919050565b6000611b0e602183612218565b91507f536166654d6174683a206d756c7469706c69636174696f6e206f766572666c6f60008301527f77000000000000000000000000000000000000000000000000000000000000006020830152604082019050919050565b6000611b74603183612218565b91507f436f6e7472616374206e6f7420616c6c6f77656420746f207370656e6420726560008301527f7175697265642044414920416d6f756e740000000000000000000000000000006020830152604082019050919050565b6000611bda601483612218565b91507f496e73756666696369656e742042616c616e63650000000000000000000000006000830152602082019050919050565b6000611c1a600b83612218565b91507f416d6f756e7420697320300000000000000000000000000000000000000000006000830152602082019050919050565b6000611c5a601f83612218565b91507f42656e656669636961727920697320746865207a65726f2061646472657373006000830152602082019050919050565b6000611c9a601b83612218565b91507f496e73756666696369656e74204275726e20416c6c6f77616e636500000000006000830152602082019050919050565b600061016083016000808401549050611ce5816123b7565b611cf26000870182611a4c565b5060018401549050611d03816123d1565b611d106020870182611ead565b5060028401611d226040870182611dc2565b5060048401549050611d33816123d1565b611d4060c0870182611ead565b5060058401549050611d51816123d1565b611d5e60e0870182611ead565b5060068401549050611d6f81612383565b611d7d6101008701826118b0565b5060078401549050611d8e816123d1565b611d9c610120870182611ead565b5060088401858303610140870152611db483826119bd565b925050819250505092915050565b608082016000808301549050611dd78161239d565b611de4600086018261199f565b50611dee816123eb565b611dfb6020860182611a5b565b50611e0581612405565b611e126040860182611a6a565b5060018301549050611e23816123d1565b611e306060860182611ead565b5050505050565b604082016000820151611e4d60008501826118b0565b506020820151611e606020850182611ead565b50505050565b604082016000808301549050611e7b81612383565b611e8860008601826118b0565b5060018301549050611e99816123d1565b611ea66020860182611ead565b5050505050565b611eb6816122fe565b82525050565b611ec5816122fe565b82525050565b6000602082019050611ee060008301846118bf565b92915050565b6000604082019050611efb60008301856118bf565b611f0860208301846118bf565b9392505050565b6000606082019050611f2460008301866118bf565b611f3160208301856118bf565b611f3e6040830184611ebc565b949350505050565b6000604082019050611f5b60008301856118bf565b611f686020830184611ebc565b9392505050565b6000606082019050611f8460008301866118bf565b611f916020830185611ebc565b611f9e6040830184611ebc565b949350505050565b60006040820190508181036000830152611fc08185611942565b90508181036020830152611fd481846118ce565b90509392505050565b6000602082019050611ff260008301846119ae565b92915050565b600060208201905081810360008301526120128184611a88565b905092915050565b6000602082019050818103600083015261203381611ac1565b9050919050565b6000602082019050818103600083015261205381611b01565b9050919050565b6000602082019050818103600083015261207381611b67565b9050919050565b6000602082019050818103600083015261209381611bcd565b9050919050565b600060208201905081810360008301526120b381611c0d565b9050919050565b600060208201905081810360008301526120d381611c4d565b9050919050565b600060208201905081810360008301526120f381611c8d565b9050919050565b600060608201905061210f6000830185611e37565b61211c6040830184611a79565b9392505050565b60006020820190506121386000830184611ebc565b92915050565b6000604051905081810181811067ffffffffffffffff8211171561216157600080fd5b8060405250919050565b60008190508160005260206000209050919050565b60008190508160005260206000209050919050565b60008190508160005260206000209050919050565b600081549050919050565b600081549050919050565b600081519050919050565b6000600982019050919050565b6000600282019050919050565b600082825260208201905092915050565b600082825260208201905092915050565b600082825260208201905092915050565b600082825260208201905092915050565b600073ffffffffffffffffffffffffffffffffffffffff82169050919050565b600060ff82169050919050565b600060ff82169050919050565b600060ff82169050919050565b600060ff82169050919050565b6000819050919050565b6000612292826122de565b9050919050565b60008115159050919050565b60008190506122b382612457565b919050565b60008190506122c682612464565b919050565b60008190506122d982612471565b919050565b600073ffffffffffffffffffffffffffffffffffffffff82169050919050565b6000819050919050565b6000612313826122a5565b9050919050565b6000612325826122b8565b9050919050565b6000612337826122cb565b9050919050565b6000612349826122fe565b9050919050565b60005b8381101561236e578082015181840152602081019050612353565b8381111561237d576000848401525b50505050565b600061239661239183612430565b612229565b9050919050565b60006123b06123ab83612430565b612249565b9050919050565b60006123ca6123c583612430565b612256565b9050919050565b60006123e46123df83612430565b61227d565b9050919050565b60006123fe6123f98361244a565b612263565b9050919050565b60006124186124138361243d565b612270565b9050919050565b6000601f19601f8301169050919050565b60008160001c9050919050565b60008160101c9050919050565b60008160081c9050919050565b6002811061246157fe5b50565b6002811061246e57fe5b50565b6002811061247b57fe5b50565b61248781612299565b811461249257600080fd5b50565b61249e816122fe565b81146124a957600080fd5b5056fea365627a7a72315820c712ee93baa5a4ccc256973e093c5e92f96bbaa75af5583ed6678f1f67c451256c6578706572696d656e74616cf564736f6c634300050c0040",
  "source": "pragma solidity 0.5.12;\r\npragma experimental ABIEncoderV2;\r\nimport \"./DyDAI.sol\";\r\n\r\nlibrary Account {\r\n    struct Info {\r\n        address owner;\r\n        uint256 number;\r\n    }\r\n}\r\n\r\nlibrary Types {\r\n    struct Wei {\r\n        bool sign; // true if positive\r\n        uint256 value;\r\n    }\r\n\r\n    enum AssetDenomination {\r\n        Wei, // the amount is denominated in wei\r\n        Par  // the amount is denominated in par\r\n    }\r\n\r\n    enum AssetReference {\r\n        Delta, // the amount is given as a delta from the current value\r\n        Target // the amount is given as an exact number to end up at\r\n    }\r\n\r\n    struct AssetAmount {\r\n        bool sign; // true if positive\r\n        AssetDenomination denomination;\r\n        AssetReference ref;\r\n        uint256 value;\r\n    }\r\n}\r\n\r\nlibrary Actions {\r\n    enum ActionType {\r\n        Deposit,   // supply tokens\r\n        Withdraw  // borrow tokens TODO why comment is borrow?\r\n    }\r\n\r\n    struct ActionArgs {\r\n        ActionType actionType;\r\n        uint256 accountId;\r\n        Types.AssetAmount amount;\r\n        uint256 primaryMarketId;\r\n        uint256 secondaryMarketId;\r\n        address otherAddress;\r\n        uint256 otherAccountId;\r\n        bytes data;\r\n    }\r\n}\r\n\r\ncontract SoloMargin {\r\n    struct OperatorArg {\r\n        address operator;\r\n        bool trusted;\r\n    }\r\n    \r\n    function operate(Account.Info[] memory accounts, Actions.ActionArgs[] memory actions) public;\r\n    function getAccountWei(Account.Info memory account, uint256 marketId) public view returns (Types.Wei memory);\r\n    function setOperators(OperatorArg[] memory args) public;\r\n    \r\n    function getMarketTokenAddress(\r\n        uint256 marketId\r\n    )\r\n        public\r\n        view\r\n        returns (address);\r\n    \r\n    function getIsLocalOperator(\r\n        address owner,\r\n        address operator\r\n    )\r\n        public\r\n        view\r\n        returns (bool);\r\n}\r\n\r\nlibrary Address {\r\n    /**\r\n     * @dev Returns true if `account` is a contract.\r\n     *\r\n     * [IMPORTANT]\r\n     * ====\r\n     * It is unsafe to assume that an address for which this function returns\r\n     * false is an externally-owned account (EOA) and not a contract.\r\n     *\r\n     * Among others, `isContract` will return false for the following\r\n     * types of addresses:\r\n     *\r\n     *  - an externally-owned account\r\n     *  - a contract in construction\r\n     *  - an address where a contract will be created\r\n     *  - an address where a contract lived, but was destroyed\r\n     * ====\r\n     */\r\n    function isContract(address account) internal view returns (bool) {\r\n        // According to EIP-1052, 0x0 is the value returned for not-yet created accounts\r\n        // and 0xc5d2460186f7233c927e7db2dcc703c0e500b653ca82273b7bfad8045d85a470 is returned\r\n        // for accounts without code, i.e. `keccak256('')`\r\n        bytes32 codehash;\r\n        bytes32 accountHash = 0xc5d2460186f7233c927e7db2dcc703c0e500b653ca82273b7bfad8045d85a470;\r\n        // solhint-disable-next-line no-inline-assembly\r\n        assembly { codehash := extcodehash(account) }\r\n        return (codehash != accountHash && codehash != 0x0);\r\n    }\r\n\r\n    /**\r\n     * @dev Replacement for Solidity's `transfer`: sends `amount` wei to\r\n     * `recipient`, forwarding all available gas and reverting on errors.\r\n     *\r\n     * https://eips.ethereum.org/EIPS/eip-1884[EIP1884] increases the gas cost\r\n     * of certain opcodes, possibly making contracts go over the 2300 gas limit\r\n     * imposed by `transfer`, making them unable to receive funds via\r\n     * `transfer`. {sendValue} removes this limitation.\r\n     *\r\n     * https://diligence.consensys.net/posts/2019/09/stop-using-soliditys-transfer-now/[Learn more].\r\n     *\r\n     * IMPORTANT: because control is transferred to `recipient`, care must be\r\n     * taken to not create reentrancy vulnerabilities. Consider using\r\n     * {ReentrancyGuard} or the\r\n     * https://solidity.readthedocs.io/en/v0.5.11/security-considerations.html#use-the-checks-effects-interactions-pattern[checks-effects-interactions pattern].\r\n     */\r\n    function sendValue(address payable recipient, uint256 amount) internal {\r\n        require(address(this).balance >= amount, \"Address: insufficient balance\");\r\n\r\n        // solhint-disable-next-line avoid-low-level-calls, avoid-call-value\r\n        (bool success, ) = recipient.call.value(amount)(\"\");\r\n        require(success, \"Address: unable to send value, recipient may have reverted\");\r\n    }\r\n}\r\n\r\nlibrary SafeERC20 {\r\n    using SafeMath for uint256;\r\n    using Address for address;\r\n\r\n    function safeTransfer(IERC20 token, address to, uint256 value) internal {\r\n        _callOptionalReturn(token, abi.encodeWithSelector(token.transfer.selector, to, value));\r\n    }\r\n\r\n    function safeTransferFrom(IERC20 token, address from, address to, uint256 value) internal {\r\n        _callOptionalReturn(token, abi.encodeWithSelector(token.transferFrom.selector, from, to, value));\r\n    }\r\n\r\n    function safeApprove(IERC20 token, address spender, uint256 value) internal {\r\n        // safeApprove should only be called when setting an initial allowance,\r\n        // or when resetting it to zero. To increase and decrease it, use\r\n        // 'safeIncreaseAllowance' and 'safeDecreaseAllowance'\r\n        // solhint-disable-next-line max-line-length\r\n        require((value == 0) || (token.allowance(address(this), spender) == 0),\r\n            \"SafeERC20: approve from non-zero to non-zero allowance\"\r\n        );\r\n        _callOptionalReturn(token, abi.encodeWithSelector(token.approve.selector, spender, value));\r\n    }\r\n\r\n    function safeIncreaseAllowance(IERC20 token, address spender, uint256 value) internal {\r\n        uint256 newAllowance = token.allowance(address(this), spender).add(value);\r\n        _callOptionalReturn(token, abi.encodeWithSelector(token.approve.selector, spender, newAllowance));\r\n    }\r\n\r\n    function safeDecreaseAllowance(IERC20 token, address spender, uint256 value) internal {\r\n        uint256 newAllowance = token.allowance(address(this), spender).sub(value, \"SafeERC20: decreased allowance below zero\");\r\n        _callOptionalReturn(token, abi.encodeWithSelector(token.approve.selector, spender, newAllowance));\r\n    }\r\n\r\n    /**\r\n     * @dev Imitates a Solidity high-level call (i.e. a regular function call to a contract), relaxing the requirement\r\n     * on the return value: the return value is optional (but if data is returned, it must not be false).\r\n     * @param token The token targeted by the call.\r\n     * @param data The call data (encoded using abi.encode or one of its variants).\r\n     */\r\n    function _callOptionalReturn(IERC20 token, bytes memory data) private {\r\n        // We need to perform a low level call here, to bypass Solidity's return data size checking mechanism, since\r\n        // we're implementing it ourselves.\r\n\r\n        // A Solidity high level call has three parts:\r\n        //  1. The target address is checked to verify it contains contract code\r\n        //  2. The call itself is made, and success asserted\r\n        //  3. The return value is decoded, which in turn checks the size of the returned data.\r\n        // solhint-disable-next-line max-line-length\r\n        require(address(token).isContract(), \"SafeERC20: call to non-contract\");\r\n\r\n        // solhint-disable-next-line avoid-low-level-calls\r\n        (bool success, bytes memory returndata) = address(token).call(data);\r\n        require(success, \"SafeERC20: low-level call failed\");\r\n\r\n        if (returndata.length > 0) { // Return data is optional\r\n            // solhint-disable-next-line max-line-length\r\n            require(abi.decode(returndata, (bool)), \"SafeERC20: ERC20 operation did not succeed\");\r\n        }\r\n    }\r\n}\r\n\r\ncontract DyCrowd {\r\n    using SafeMath for uint256;\r\n    using SafeERC20 for IERC20;\r\n\r\n    // The token being sold\r\n    DyDAI internal DyDAItoken;\r\n    address internal sm;\r\n    ERC20 internal DAIToken;\r\n    \r\n    Account.Info[] internal accounts;\r\n    Actions.ActionArgs[] internal actions;\r\n  \r\n    uint256 private _rate=1000000000000000000; //1 decimals 18\r\n    \r\n    address public  owner;\r\n\r\n    modifier onlyOwner() {\r\n        require (msg.sender == owner);\r\n        _;\r\n    }\r\n\r\n    event TokensPurchased(address  purchaser, uint256 DAIAmount, uint256 DyDAItokenamount);\r\n    event TokensSold(address Withdrawee,uint256 DyDAItokenamount,uint256 DAIAmount);\r\n\r\n\r\n    constructor (address DyDAItokenAddr,address DAITokenAddr,address soloMargin) public {\r\n        owner = msg.sender;\r\n        require(soloMargin != address(0), \"soloMargin is the zero address\");\r\n        require(DyDAItokenAddr != address(0), \"DyDAItoken is the zero address\");\r\n        require(DAITokenAddr != address(0), \"DAIToken is the zero address\");\r\n        sm=soloMargin;\r\n        DyDAItoken = DyDAI(DyDAItokenAddr);\r\n        DAIToken = ERC20(DAITokenAddr);\r\n    }\r\n\r\n    function token() public view returns (address) {\r\n        return address(DyDAItoken);\r\n    }\r\n\r\n    function rate() public view returns (uint256) {\r\n        return _rate;\r\n    }\r\n    \r\n    function updateRate() public {\r\n        uint256 totalDyDAISupply=totalDyDAIMinted();\r\n        uint256 totalDAIBalance=contractDAIBalance();\r\n        if(totalDyDAISupply>0 && totalDAIBalance>0){\r\n           _rate=(totalDAIBalance.mul(10**18)).div(totalDyDAISupply);\r\n        }\r\n        rate();\r\n    }\r\n    \r\n    function totalDyDAIMinted() public view returns(uint256){\r\n        return DyDAItoken.totalSupply();\r\n    }\r\n    \r\n    function contractDAIBalance() public view returns(uint256){\r\n         Account.Info memory contractAccount =Account.Info({\r\n            owner:address(this),\r\n            number:0\r\n        });\r\n        return SoloMargin(sm).getAccountWei(contractAccount,1).value;\r\n    }\r\n\r\n    function _preValidateData(address beneficiary, uint256 Amount) internal pure \r\n    {\r\n        require(beneficiary != address(0), \"Beneficiary is the zero address\");\r\n        require(Amount != 0, \"Amount is 0\");\r\n    }\r\n    \r\n    function buyTokens(uint256 DAIAmount) public   \r\n    {\r\n        address sender= msg.sender;\r\n        _preValidateData(sender,DAIAmount);\r\n        require(DAIToken.balanceOf(sender)>=DAIAmount,\"Insufficient Balance\");\r\n        DAIToken.transferFrom(sender,address(this),DAIAmount);\r\n        DAIToken.approve(sm,DAIAmount);\r\n        uint256 allowance = DAIToken.allowance(address(this), sm);\r\n        require(allowance>=DAIAmount,\"Contract not allowed to spend required DAI Amount\");\r\n        \r\n        // calculate token amount to be minted\r\n        updateRate();\r\n        uint256 tokens = (DAIAmount.mul(10**18)).div(_rate);\r\n\r\n        operate(address(this),DAIAmount,true);\r\n        require(ERC20Mintable(address(token())).mint(sender, tokens),\"Minting failed\"); //Minting DyDAI Token\r\n        emit TokensPurchased(sender, DAIAmount, tokens);\r\n    }\r\n    \r\n    \r\n    function sellTokens(uint256 tokenAmount) public \r\n    {\r\n        address sender= msg.sender;\r\n        _preValidateData(sender,tokenAmount);\r\n        require(DyDAItoken.balanceOf(sender)>=tokenAmount,\"Insufficient Balance\");\r\n        uint256 burnallowance = DyDAItoken.allowance(sender, address(this));\r\n        require(burnallowance>=tokenAmount,\"Insufficient Burn Allowance\");\r\n        updateRate();\r\n        DyDAItoken.burnFrom(sender,tokenAmount);\r\n        uint256 initialDAIAmount=(tokenAmount.mul(_rate)).div(10**18);// calculate dai amount to be return\r\n        operate(address(this),initialDAIAmount,false);\r\n        uint256 finalDAIAmount=(initialDAIAmount.div(1000)).mul(995);//returning dai to user after deducting 0.5% fees\r\n        DAIToken.transfer(sender,finalDAIAmount);\r\n        emit TokensSold(sender,tokenAmount, initialDAIAmount);\r\n    }\r\n\r\n    function operate(address user, uint256 amount, bool isDeposit) internal\r\n    {\r\n        bytes memory data;\r\n        Account.Info memory account =Account.Info({\r\n            owner:user,\r\n            number:0\r\n        });\r\n        Actions.ActionArgs memory action = Actions.ActionArgs({\r\n            actionType: isDeposit ? Actions.ActionType.Deposit : Actions.ActionType.Withdraw,\r\n            amount: Types.AssetAmount({\r\n                sign: isDeposit,\r\n                denomination: Types.AssetDenomination.Wei,\r\n                ref: Types.AssetReference.Delta,\r\n                value: amount\r\n            }),\r\n            primaryMarketId: 1,\r\n            otherAddress: user,\r\n            accountId: 0,\r\n            secondaryMarketId: 0,\r\n            otherAccountId: 0,\r\n            data: data\r\n        });\r\n\r\n        if (accounts.length > 0) {\r\n            accounts[0] = account;\r\n            actions[0] = action;\r\n        } else {\r\n            accounts.push(account);\r\n            actions.push(action);\r\n        }\r\n\r\n        SoloMargin(sm).operate(accounts, actions);\r\n    }\r\n    \r\n    function withdrawDAI() onlyOwner public returns(bool) \r\n    {\r\n        uint256 Balance=DAIToken.balanceOf(address(this));\r\n        require(Balance>0);\r\n        DAIToken.transfer(owner,Balance);\r\n        return true;\r\n    }\r\n}",
  "sourcePath": "C:\\Users\\akshit\\Desktop\\dydai\\contracts\\DyCrowd.sol",
  "compiler": {
    "name": "solc",
    "version": "0.5.12+commit.7709ece9.Emscripten.clang"
  },
  "schemaVersion": "3.1.0",
  "updatedAt": "2020-05-12T15:49:12.275Z",
  "networkType": "ethereum",
  "devdoc": {
    "methods": {}
  },
  "userdoc": {
    "methods": {}
  }
}